S012000053656E736F426F6172642E7372656322
S214400000283500204D124000451240004512400061
S21440001045124000451240004512400000000000D6
S21440002000000000000000000000000045124000F4
S21440003045124000000000004512400045124000B6
S214400040451240004512400045124000451240000F
S2144000504512400045124000451240000000000096
S21440006045124000451240004512400071074000CE
S21440007089074000A1074000451240004512400055
S2144000804512400045124000000000004512400066
S21440009045124000451240004512400045124000BF
S2144000A045124000451240004512400045124000AF
S2144000B0451240004512400045124000451240009F
S2144000C008B50548054B1B1A062B00D808BD044B3F
S2144000D0002BFBD09847F9E7D4414000D741400079
S2144000E00000000008B50748074B1B1A9B1003EB9F
S2144000F0D373591000D108BD044A002AFBD090475C
S214400100F9E700BFD4414000D44140000000000061
S21440011010B5064C237843B9FFF7D2FF044B13B112
S2144001200448AFF300800123237010BD78040020FC
S21440013000000000D441400008B5084B1BB10848F9
S2144001400849AFF300800848036813B1074B03B172
S2144001509847BDE80840FFF7C5BF00BF0000000055
S214400160D44140007C040020D44140000000000000
S21440017080B582B000AF0023FB710CE0FA790B49E2
S2144001801346DB0013449B000B44083304229A7149
S214400190FB790133FB71FB79002BEFD0044BFF2238
S2144001A01A70044B98470837BD4680BD1C00002097
S2144001B094040020F901400080B483B000AF78601A
S2144001C07B6801221A600C37BD465DF8047B704799
S2144001D080B483B000AF78607B681B6903F48033DB
S2144001E0002B01D0012300E0002318460C37BD4603
S2144001F05DF8047B704700BF80B500AF074B002218
S2144002001A700748074B98470346002B05D1044809
S214400210054B98470248054B984780BD95040020FB
S21440022000800040D1014000E9024000B901400092
S21440023080B483B000AF78607B6880221A600C3749
S214400240BD465DF8047B704780B483B000AF7860ED
S2144002507B685B6843F001027B685A600C37BD469A
S2144002605DF8047B704700BF80B483B000AF786011
S2144002707B685B6823F002027B685A600C37BD4699
S2144002805DF8047B704700BF80B483B000AF7860F1
S2144002907B685B6823F004027B685A600C37BD4677
S2144002A05DF8047B704700BF80B483B000AF7860D1
S2144002B07B685B6843F010027B685A600C37BD462B
S2144002C05DF8047B704700BF80B483B000AF7860B1
S2144002D07B685B6823F080027B685A600C37BD46BB
S2144002E05DF8047B704700BF80B582B000AF786091
S2144002F078680F4B984778680E4B984778680E4B4F
S214400300984778680D4B984778680D4B98477868BB
S21440031000210C4B984778680B4B984778680B4BF6
S2144003209847786800210A4B98470837BD4680BDF5
S214400330D10740003102400049024000A902400077
S214400340C9024000E90740006902400089024000B7
S2144003501D08400080B485B000AFF860B9607A6090
S2144003607B68002B03D0FB68BA685A6602E0FB68DD
S214400370BA681A661437BD465DF8047B704700BFFE
S21440038080B483B000AF786039607B683A681A639F
S2144003900C37BD465DF8047B704700BF80B483B021
S2144003A000AF786039607B683A685A630C37BD4660
S2144003B05DF8047B704700BF80B487B000AFF8603C
S2144003C0B9607A60FB687A685A64BB68B3F1C05F0C
S2144003D04AD0B3F1C05F08D8B3F1006F16D0B3F17E
S2144003E0805F2CD0002B69D064E0B3F1205F65D0ED
S2144003F0B3F1205F03D8B3F1005F4AD05AE0B3F1BF
S214400400405F5BD0B3F1605F58D053E0FB681B6F32
S2144004107B61FB681A6F7B68D9437B690B401A4047
S214400420FB681A67FB685B6F7B61FB685A6F7B688B
S214400430D9437B690B401A40FB685A673AE0FB6831
S2144004401B6F7B617A687B691A43FB681A67FB6897
S2144004505B6F7B61FB685A6F7B68D9437B690B4057
S2144004601A40FB685A6725E0FB681B6F7B61FB6898
S2144004701A6F7B68D9437B690B401A40FB681A6742
S214400480FB685B6F7B617A687B691A43FB685A67D7
S21440049010E0FB681B6F7B617A687B691A43FB68D8
S2144004A01A67FB685B6F7B617A687B691A43FB68F7
S2144004B05A6700BFFB687A685A6000E000BF1C3786
S2144004C0BD465DF8047B704780B584B000AFF860E9
S2144004D0B9607A60F868B968184B98477B6803F04B
S2144004E00103F868B9681A46154B98477B6803F0CD
S2144004F00A03002B03D0FB68BA681A6202E0FB6866
S214400500BA685A627B6803F00203002B04D0FB688B
S214400510BA68C3F8802008E07B6803F00803002B25
S21440052003D0FB68BA68C3F88420FB68BA685A618F
S214400530FB68BA681A601037BD4680BD7106400039
S2144005405503400080B584B000AFF860B9607A606B
S2144005503B60F868B968124B9847F868B968BA695A
S214400560104B98473B68002B03D0FB68BA681A6567
S21440057002E0FB68BA685A657B68002B03D0FB68CC
S214400580BA681A6302E0FB68BA685A63FB68BA68DE
S2144005901A61FB68BA681A601037BD4680BD00BF56
S2144005A0710640005503400090B587B002AFF86032
S2144005B0B9607A603B60BB68B3F1005F16D0B3F1B8
S2144005C0005F09D8B3F1805F10D0B3F1C05F0DD0A3
S2144005D0B3F1006F0AD03BE0B3F1405F1AD0B3F1FD
S2144005E0605F17D0B3F1205F0ED031E0F868B9688D
S2144005F07A681B4B98473B6803F00103F8687968B4
S2144006001A46184B984725E0F86879683A68164BBA
S21440061098471FE0BB68B3F1605F14BF0023012317
S214400620DBB21A463B6803F00403002B0CBF0023E2
S2144006300123DBB2396801F0010100290CBF00211B
S2144006400121C9B20091F8687968084CA04701E0DA
S214400650002300E0012318461437BD4690BD00BF76
S214400660B903400055034000C9044000450540001A
S21440067080B483B000AF786039607B683A685A646B
S2144006800C37BD465DF8047B704700BF80B483B02E
S21440069000AF78607B68DB6C18460C37BD465DF86B
S2144006A0047B704780B483B000AF78607B689B6CF7
S2144006B018460C37BD465DF8047B704780B584B05D
S2144006C000AF786039607868264B9847F86078685D
S2144006D0254B98470346FA681340FB60FB68002B9F
S2144006E03CD00023BB6036E0204ABB681B01134465
S2144006F01A683B689A4227D11C4ABB681B011344C0
S21440070004331A68FB681340002B1DD0174ABB6899
S2144007101B0113440C331B681449BA6812010A447F
S21440072011681248BA681201024404321268084638
S214400730114698470D4ABB681B01134404331B6897
S214400740DB43FA681340FB60BB680133BB60BB68A1
S214400750062B00D902E0FB68002BC5D11037BD46FA
S21440076080BD00BF8D064000A506400098040020CE
S21440077080B500AF02480B21024B984780BD00BFB2
S214400780000E0E40BD06400080B500AF02480C216A
S214400790024B984780BD00BF00100E40BD0640008B
S2144007A080B500AF02480D21024B984780BD00BF80
S2144007B000120E40BD06400080B582B000AF7860A3
S2144007C07868024B98470837BD4680BDC50E400046
S2144007D080B582B000AF78601520024B9847083746
S2144007E0BD4680BDB907400080B483B000AF786096
S2144007F039607B685B6823F470227B685A607B684C
S2144008005A683B681B0403F470231A437B685A609B
S2144008100C37BD465DF8047B704700BF80B483B09C
S21440082000AF786039607B685B6823F07F427B6806
S2144008305A607B685A683B681B061A437B685A6056
S2144008400C37BD465DF8047B704700BF80B483B06C
S21440085000AF78607B6808221A607B6820221A60A6
S2144008607B6804221A600C37BD465DF8047B7047EF
S21440087080B584B000AF786039600023FB607B6849
S2144008804FF0FF329A627B681B6A78680F4B984736
S21440089078680F4B98473B685A683B681B6878688F
S2144008A011461A460B4B98470346012B01D10123AC
S2144008B0FB603B685B7A012B02D17B6840221A6062
S2144008C0FB6818461037BD4680BD00BF490940004A
S2144008D04D084000D908400080B487B000AFF860AB
S2144008E0B9607A6000237B61BA68164B9A4201D998
S2144008F0012321E0BB685B007A68B2FBF3F3043B5C
S2144009003B6105E07B6901337B613B695B083B618A
S2144009103B69FF2B02D97B69062BF3D93B69DAB2D8
S2144009203B691B029BB21A437B691B0403F4E0231A
S2144009301A43FB681A61002318461C37BD465DF80B
S214400940047B7047801A060080B483B000AF78609E
S2144009507B6880221A607B681B6B0C37BD465DF84F
S214400960047B704780B582B000AF78607B68072B09
S21440097030D801A252F823F0D5094000990940002A
S214400980A1094000A9094000B1094000B90940004A
S214400990C1094000CB0940000020104B984719E0A1
S2144009A001200E4B984715E000200D4B984711E06C
S2144009B010200B4B98470DE02020094B984709E044
S2144009C000203E21074B984704E001203E21054B7E
S2144009D0984700BF0837BD4680BD00BF210D400088
S2144009E08D0D4000FD0D400080B582B000AF7860B0
S2144009F07B68072B26D801A252F823F01D0A400038
S214400A00210A4000210A4000330A4000330A4000D1
S214400A10330A4000330A4000330A4000012312E004
S214400A200B4B98470346002B0CBF00230123DBB239
S214400A3009E0084B98470346002B0CBF00230123D0
S214400A40DBB200E0002318460837BD4680BD00BF35
S214400A50590D4000750E400080B483B000AF7860FA
S214400A607B68072B25D801A252F823F08D0A400058
S214400A70930A4000990A40009F0A4000A30A40009B
S214400A80A70A4000AB0A4000AF0A40004FF4FA43C2
S214400A9010E04FF400430DE04FF400430AE0084BEB
S214400AA008E0084B06E0084B04E0074B02E0064B24
S214400AB000E0002318460C37BD465DF8047B7047BF
S214400AC000093D0000127A00001BB70080B582B0D6
S214400AD000AF0346FB7100BFFB791846054B9847AD
S214400AE0034683F00103DBB2002BF5D10837BD4641
S214400AF080BD00BFE909400080B586B000AFF86011
S214400B007A603B600B46FB72FB7A18460D4B984763
S214400B1002467B68B2FBF3F37B617B693A6802FB73
S214400B2003F37B613B68013B1A04074B13407A682A
S214400B30D2B2134343F47C52FB681A601837BD4662
S214400B4080BD00BF590A40000000FF0780B582B054
S214400B5000AF786039603B68002B07D1054B98475B
S214400B60054B7A68126842F000529A620837BD46D2
S214400B7080BD00BF910E400000040E4080B582B09C
S214400B8000AF78607B68002B03D1044B9847034640
S214400B9000E0002318460837BD4680BDA90E400039
S214400BA080B582B000AF0346FB71FB79043B032B54
S214400BB008D8FB791846054B9847FB791846044BEE
S214400BC0984700E000BF0837BD4680BD6509400035
S214400BD0CD0A400080B582B000AF786000BF78682C
S214400BE0044B98470346002BF9D000231846083795
S214400BF0BD4680BD7D0B400080B500AF0420054B50
S214400C009847024613469B0013449A0013441846DE
S214400C1080BD00BF590A400080B500AF024B9847E0
S214400C2003465B08184680BDF90B400090B583B07C
S214400C3000AF1148114B98470420114B98473B1D75
S214400C4018460421012219230E4CA0473B1D184686
S214400C5000210D4B984700200C4B984710200C4B1A
S214400C6098470C4B98470C4B984703461846034BFF
S214400C7098470C37BD4690BD00E1F5053914400055
S214400C80A10B4000F90A40004D0B4000D50B400038
S214400C909D0C4000D1124000190C400080B485B035
S214400CA000AF78601D4B1D4A126B22F070017A68C7
S214400CB00A431A634FF40063FB6007E0FB68002BAF
S214400CC001D1012323E0FB68013BFB60134B9B6E85
S214400CD003F00803002BF1D0104B104A126B22F0A1
S214400CE0030242F002021A634FF40063FB6007E01F
S214400CF0FB68002B01D1012309E0FB68013BFB6048
S214400D00064B9B6E03F00803002BF1D000231846D9
S214400D101437BD465DF8047B704700BF00040E40A4
S214400D2080B483B000AF78607B68012B07D1084A57
S214400D30074B9B6843F0254343F480139360044B72
S214400D40044A1A600C37BD465DF8047B704700BF06
S214400D5010140E40080000A580B400AF094B5B6934
S214400D6003F08003002B07D0074B9B6E03F08003F5
S214400D70002B01D0012300E000231846BD465DF855
S214400D80047B704710140E4000040E4080B483B0BD
S214400D9000AF7860184A184B1B6A43F45C1343F064
S214400DA00803136200BF144B9B6E03F40033002B02
S214400DB0F9D0114A104B1B6A23F45C1323F07003DE
S214400DC079680B4343F45C13136200BF0A4B9B6E77
S214400DD003F40033002BF9D0074A074B1B6A23F075
S214400DE09B7323F4803343F45C1313620C37BD4685
S214400DF05DF8047B704700BF00040E4080B483B0AB
S214400E0000AF786039607B68002B08D01649164BD7
S214400E101B6A164A1A40164B13430B621EE0124AD0
S214400E20114B1B6A23F45C1323F003033968090251
S214400E3089B20B4343F45C1343F00103136200BFD3
S214400E40094B9B6E03F00103002BF9D0064A064B74
S214400E501B6A43F09B7343F4803313620C37BD46E2
S214400E605DF8047B704700BF00040E40FCFFC8FEE0
S214400E700200370180B400AF044B9B6E03F480330E
S214400E801846BD465DF8047B704700BF00040E4020
S214400E9080B400AF034B4FF000529A62BD465DF8F7
S214400EA0047B704700040E4080B400AF044B9B6E3A
S214400EB003F002031846BD465DF8047B704700BF4A
S214400EC000040E4080B483B000AF78607B681F2B70
S214400ED001D9012316E07B681F2B12D80C4B9A6968
S214400EE07B68012101FA03F31A407B68012101FA6D
S214400EF003F39A4205D0064B7A68012101FA02F2C2
S214400F001A61002318460C37BD465DF8047B7047CF
S214400F1000040E4080B485B000AF7860396000238E
S214400F20FB607B68AC221A603B681A683B685B686B
S214400F30B2FBF3F31B09FB60FB68002B03D0FB6896
S214400F40B3F5803F01D301230FE07B68FA681A624D
S214400F503B689A687B685A607B6840F20222C3F816
S214400F6020217B6850221A60002318461437BD465D
S214400F705DF8047B704700BF80B582B000AF7860F4
S214400F807868024B98470837BD4680BDC50E40007E
S214400F9080B500AF0B20044B98470C20024B984777
S214400FA00D20014B984780BD790F400080B489B032
S214400FB000AF78607B68FB61FB69BB61BB695A091F
S214400FC0FB697B617B6903F01F03012101FA03F390
S214400FD03A61FB603B69BB60BB6803F5001303F2F4
S214400FE007735B02FA685A602437BD465DF8047B97
S214400FF0704700BF80B48DB000AF786039607B68C2
S214401000FB623B68BB62FB6A7B627B6A5A09FB6A8F
S2144010103B623B6A03F01F03012101FA03F3FA61C6
S214401020BB61BB6A7B61FB693B613B6903F50013AF
S21440103003F207735B02FB607B6903F00803002B37
S21440104003D0FB68BA695A6602E0FB68BA691A665A
S2144010507B6903F01003002B04D0FB68BA69C3F821
S214401060942003E0FB68BA69C3F890207B6903F0DC
S2144010702003002B03D0FB68BA691A6502E0FB68C0
S214401080BA695A657B6903F0C003002B03D0FB683E
S214401090BA691A6202E0FB68BA695A627B6903F071
S2144010A08003002B04D0FB68BA69C3F8842003E0B1
S2144010B0FB68BA69C3F880207B6903F00103002B04
S2144010C006D0FB681A6FBB691A43FB681A6706E0CE
S2144010D0FB681A6FBB69DB431A40FB681A677B697B
S2144010E003F00203002B06D0FB685A6FBB691A4315
S2144010F0FB685A6706E0FB685A6FBB69DB431A40D9
S214401100FB685A673437BD465DF8047B704700BFBE
S21440111080B48DB000AF78600B46FB707B68FB6296
S214401120FB7887F82B30FB6A7B627B6A3B623B6AC4
S2144011305B09FB61FB6903F5001303F207735B026F
S214401140BB6197F82B30012B09D1FB6A7B617B6929
S21440115003F01F0301229A40BB691A610CE097F81E
S2144011602B30002B08D1FB6A3B613B6903F01F0321
S21440117001229A40BB695A61FB6AFB60FB6803F038
S2144011801F0301229A40BB69C3F8A0203437BD46EE
S2144011905DF8047B704700BF80B500AF15201D4B3F
S2144011A098471D4B98471A2000211C4B98471A20F9
S2144011B008211B4B98470C204FF00061184B98476E
S2144011C00C20184B98470D204FF00061144B984761
S2144011D00D20144B98470E204FF00061104B984757
S2144011E00E20104B98470B204FF000610C4B984751
S2144011F00B200C4B984720200121094B9847202074
S214401200084B984721200121054B98472120054B44
S214401210984780BDC50E4000910F40001111400018
S214401220F50F4000AD0F400080B483B000AF78604B
S2144012307B684FF400425A600C37BD465DF8047B2D
S214401240704700BF80B400AFFEE700BF80B582B0F5
S21440125000AF164B7B60164B3B607A683B689A4201
S2144012600CD007E03B681A1D3A607A68111D796019
S21440127012681A603A680F4B9A42F3D30E4B3B60A3
S21440128004E03B681A1D3A6000221A603A680B4B2D
S2144012909A42F6D30A4B7B600A4B7A6822F07F026A
S2144012A09A60094B9847094B9847FEE7D44140005F
S2144012B00000002078040020780400202805002044
S2144012C00000400000ED00E0813E4000091C400068
S2144012D080B400AF514B1B6B03F00303012B14D0BB
S2144012E0012B02D3022B38D07BE04D4B5B6903F0D9
S2144012F08003002B04D04B4B4FF400421A6070E042
S214401300484B4FF4FA421A606BE0444B1B6A03F0BA
S2144013108073002B03D0434B434A1A601CE0414B7A
S214401320424A1A603D4B1B6A03F07003102B04D0F0
S214401330202B08D0002B0ED00EE03A4B1B685A00EC
S214401340384B1A6008E0374B1A6813465B001A445D
S214401350344B1A6000E000BF43E0304B1B6A03F09A
S2144013608073002B03D02F4B2F4A1A601CE02D4B66
S2144013702E4A1A60294B1B6A03F07003102B04D0C8
S214401380202B08D0002B0ED00EE0264B1B685A00B0
S214401390244B1A6008E0234B1A6813465B001A4435
S2144013A0204B1A6000E000BF1C4B1B6B03F003038E
S2144013B0022B15D1194B9A6A1D4B13401B0C013357
S2144013C0184A126802FB03F2164B1A60154B1A684D
S2144013D0124B9B6ADBB2B2FBF3F2124B1A60FFE78A
S2144013E000BF0E4B1B6B03F07003702B08D10D4BE8
S2144013F01A68104BA3FB02135A080A4B1A6009E0FE
S214401400084B1A68054B1B6B03F070031B09DA4048
S214401410044B1A60BD465DF8047B704700040E40DE
S21440142010140E4040000020001BB70000093D008D
S2144014300000FF07ABAAAAAA80B483B000AF7860CA
S2144014407A68144B9A4204D8134B4FF080621A6065
S2144014501BE07A68114B9A4203D80F4B104A1A6029
S21440146013E07A680F4B9A4203D80B4B0E4A1A6029
S2144014700BE07A680D4B9A4203D8074B0C4A1A6029
S21440148003E0054B4FF004221A600C37BD465DF86A
S214401490047B7047FF2C3101000A0E40FF59620260
S2144014A000010004FF86930300020004FFB3C40457
S2144014B00003000480B483B000AF78607B68072BDD
S2144014C025D801A252F823F0E9144000EF1440005A
S2144014D0F5144000FB144000FF1440000315400084
S2144014E0071540000B1540004FF4FA4310E04FF448
S2144014F000430DE04FF400430AE0084B08E0084B79
S21440150006E0084B04E0074B02E0064B00E00023F1
S21440151018460C37BD465DF8047B704700093D0011
S21440152000127A00001BB70080B500AF0420054BC0
S2144015309847024613469B0013449A0013441846A5
S21440154080BD00BFB514400080B500AF024B984741
S21440155003465B08184680BD2915400080B500AF9D
S21440156002484FF48011024B984780BD000E0E4053
S2144015709D03400080B584B000AF78600B467B800A
S2144015800023FB6034E01E484FF480511D4B9847C3
S2144015901B48FF211C4B98477B881B0A9BB2184868
S2144015A01946184B984719484FF48031164B9847C0
S2144015B000BF16484FF48031124B984700BF104882
S2144015C0FF21114B98477B88DBB20D4819460D4BDF
S2144015D098470E484FF480310B4B984700BF0B4856
S2144015E04FF48031074B984700BFFB680133FB60E0
S2144015F0FA687B689A42C6D31037BD4680BD00BFA6
S21440160000120E40810340009D034000000E0E4035
S21440161090B583B000AF02460B46FA71BB80FB79AB
S214401620012B05D12C484FF480512C4B984704E0B1
S21440163029484FF480512A4B98472748FF21274B8B
S2144016409847BB88DBB224481946254B984725481F
S2144016504FF48031214B9847234B98470346184612
S2144016604FF000011AA3D3E90023121843EB0103FD
S2144016701E4C104619461E4A4FF00003A04702462D
S2144016800B46134618461B4B984716484FF4803176
S214401690134B9847144B9847034618464FF00001A3
S2144016A00BA3D3E90023121843EB01030F4C10465B
S2144016B019460F4A4FF00003A04702460B46134612
S2144016C018460C4B98470C37BD4690BDAFF300808C
S2144016D07F9FD5000000000000120E409D03400092
S2144016E081034000000E0E4049154000D5384000AA
S2144016F0809FD5000100002090B583B002AF0D203A
S2144017002D4B9847002300932C484FF4801101221C
S21440171000232B4CA0470023009328484FF4004159
S21440172000220023264CA0470023009325484FF470
S214401730805101220023224CA047002300931F48DB
S2144017404FF48031012200231D4CA0470023009314
S2144017501C484FF0006101220023194CA04700238B
S21440176000931848FF2100220023154CA047164B33
S214401770984703461A464FF00003921843EB03037C
S214401780104619460AA3D3E90023121843EB010377
S2144017900E4C104619460E4A4FF00003A04702462C
S2144017A00B46134618460B4B98470437BD4690BD2C
S2144017B07F9FD50000000000C50E4000000E0E4082
S2144017C04505400000120E4049154000D5384000FF
S2144017D0809FD50001000020F8B500AFA7484FF421
S2144017E00041A74B9847A74B9847034618464FF0EB
S2144017F0000102460B46921843EB0303121843EBD4
S2144018000103921843EB03031046194643F2AF62B6
S2144018104FF00003121843EB01039B4E1046194647
S21440182043F2B0624FF00003B04702460B46134601
S2144018301846964B984701201121954B9847914B57
S2144018409847034618464FF0000102460B4692184A
S21440185043EB0303121843EB0103921843EB0303D5
S2144018601046194643F2AF624FF00003121843EB9E
S2144018700103854E1046194643F2B0624FF000030E
S214401880B04702460B4613461846804B9847012001
S21440189028217F4B98470120C0217D4B9847002048
S2144018A026217B4B984700200421794B98470120FE
S2144018B0C121774B984700200421754B984701205B
S2144018C0C521734B984700203421714B9847002020
S2144018D040216F4B98470120B1216D4B984700201F
S2144018E000216B4B984700201821694B98470120F0
S2144018F0B621674B984700200A21654B9847002041
S214401900A221634B984700202721614B984700202F
S21440191000215F4B9847012036215D4B98470020B9
S21440192008215B4B98470120C721594B9847002018
S214401930C021574B984701203A21554B98470020E5
S2144019405521534B98470120E021514B98470020A2
S2144019501F214F4B984700201B214D4B9847002096
S21440196018214B4B984700200B21494B98470020A5
S2144019700F21474B984700200921454B98470020A8
S2144019804621434B98470020B521414B98470020BD
S21440199037213F4B984700200A213D4B984700206F
S2144019A00C213B4B984700200721394B9847002095
S2144019B00721374B984700200521354B9847002094
S2144019C00021334B98470120E121314B98470020B6
S2144019D000212F4B9847002024212D4B984700206C
S2144019E027212B4B984700200421294B984700205D
S2144019F01021274B984700200621254B984700206A
S214401A003921234B984700207421214B98470020CA
S214401A1048211F4B9847002005211D4B9847002022
S214401A2013211B4B984700203821194B984700201C
S214401A303821174B984700203A21154B98470020ED
S214401A401F21134B984701202A21114B984700200D
S214401A5000210F4B9847002000210D4B984700204F
S214401A6000210B4B98470020EF21094B9847012057
S214401A702B21074B9847002000210BE0000E0E401C
S214401A808103400049154000D53840000100002041
S214401A90111640002E4B9847002000212C4B9847AB
S214401AA0002001212A4B984700203F21284B984789
S214401AB001202921264B9847264B9847034618462F
S214401AC04FF0000102460B46921843EB03031218F0
S214401AD043EB0103DD0045EA5275D40022462B460F
S214401AE01046194643F2AF624FF00003121843EB1C
S214401AF00103194C1046194643F2B0624FF00003FA
S214401B00A04702460B4613461846144B98470120FA
S214401B102C210F4B98470F4B9847034618464FF0DB
S214401B20000143F2AF624FF00003121843EB01038B
S214401B30094C1046194643F2B0624FF00003A047E6
S214401B4002460B4613461846044B9847F8BD00BF5E
S214401B501116400049154000D538400001000020CD
S214401B6080B483B000AF78607B68072B25D801A28D
S214401B7052F823F0951B40009B1B4000A11B4000E1
S214401B80A71B4000AB1B4000AF1B4000B31B4000F0
S214401B90B71B40004FF4FA4310E04FF400430DE00B
S214401BA04FF400430AE0084B08E0084B06E0084BB9
S214401BB004E0074B02E0064B00E0002318460C37D3
S214401BC0BD465DF8047B704700093D0000127A0070
S214401BD0001BB70080B500AF0420054B984702466F
S214401BE013469B0013449A001344184680BD00BF1A
S214401BF0611B400080B500AF024B984703465B0828
S214401C00184680BDD51B4000F0B5ADF2145D02AF5E
S214401C100A23C7F80435002387F8FF340123C7F8A2
S214401C200035934A07F59E6307CA83E80700914A42
S214401C3007F2E44307CA83E80700372387F8FE34F1
S214401C408D4B98478D4B98478D488E4B98470B2029
S214401C508D4B98470C208C4B98470D208A4B9847C5
S214401C601020894B98471620874B9847874B9847B4
S214401C70874B98470023009386484FF480610122A3
S214401C800023854CA0470023009384484FF48001EE
S214401C9001220023804CA0477E484FF4006100227A
S214401CA07F4B9847002300937E4801210022002363
S214401CB0794CA0470023009378484FF40001002257
S214401CC00023754CA0470023009376484FF400014C
S214401CD000220023704CA0470023009371484FF029
S214401CE00061012200236C4CA0476F4B9847024688
S214401CF007F12C031A6007F12C034CF250325A605D
S214401D0007F118031C221A7407F1180300221A70F0
S214401D1007F1180301225A6007F11803634A9A60D4
S214401D2007F118030122DA6007F118031A7C3B1DFD
S214401D301A743B1D11221A7007F118035A683B1D8E
S214401D405A603B1D5A4A9A6007F11803DA683B1DF1
S214401D50DA6007F12C0357481946574B9847034615
S214401D60002B04D04F484FF40001544B98474E4B3D
S214401D709847034618464FF0000102460B46921815
S214401D8043EB0303121843EB0103921843EB0303A0
S214401D901046194643F2AF624FF00003121843EB69
S214401DA00103474C1046194643F2B0624FF0000319
S214401DB0A04702460B4613461846424B9847424BAE
S214401DC09847424B9847424B9847D7F804355A1C99
S214401DD0C7F80425D7F800251344C7F80035D7F8C8
S214401DE00435D7F80025B3FBF2F2D7F8001501FB0F
S214401DF002F29B1A03F003035E1C364BD7F800052D
S214401E00984702460B4610461946334B98470246BB
S214401E100B46324C1046194613A3D3E90023A0477D
S214401E2002460B4614461D462A4BD7F800059847EF
S214401E3002460B4610461946274B984702460B4625
S214401E40DFF898C020462946E04702460B46244C19
S214401E5010461946A04703469BB230461946214BCA
S214401E609847B2E7AFF3008000000000E0FFEF4085
S214401E70B03F4000BC3F40002D0C40009911400050
S214401E8050140E4029124000C50E4000E91E400086
S214401E907101400000100E404505400000120E4003
S214401EA0C9044000000E0E40F51B40000805002007
S214401EB00C050020000004407108400081034000EB
S214401EC0D538400001000020F91640005D1540005E
S214401ED0D917400025324000411F400011334000D2
S214401EE0953840007515400090B585B000AF0E4857
S214401EF04FF000614FF4C06200230C4CA04708200E
S214401F000B4B98470B4B984703467B604FF4165352
S214401F10BB604FF40063FB603B1D07481946074B08
S214401F2098471437BD4690BD000E0E40A9054000A8
S214401F30C50E4000F51B400000060E40150F400041
S214401F4030B51A4D21F00044AC4287B002460B46ED
S214401F5004DC002300930022002315E0144DAC421D
S214401F6002DD01F021F81EE002AA00F025F800F09C
S214401F700304012CDDE90201DDE9042307D0022C2D
S214401F8008D064B90124009400F042FE0BE000F053
S214401F900BFA08E00124009400F03AFE01E000F05D
S214401FA003FA01F1004107B030BD00BFFB21E93F15
S214401FB0FFFFEF7F000000002DE9F04F04468FB092
S214401FC00D46CDE906459246079AA94B22F00048B1
S214401FD0984506DC00220023CAE90045CAE90223E8
S214401FE07FE1A44B98456FDC079BA34E002B92A342
S214401FF0D3E9002333DD00F0D7FFB04504460D4655
S21440200010D08FA3D3E9002300F0CEFF02460B4644
S214402010CAE900232046294600F0C6FF88A3D3E934
S214402020002316E088A3D3E9002300F0BDFF88A371
S214402030D3E9002304460D4600F0B6FF02460B46A1
S214402040CAE900232046294600F0AEFF80A3D3E924
S214402050002300F0A9FFCAE90201012099E100F03F
S214402060A5FFB04504460D4610D075A3D3E900231E
S21440207000F09CFF02460B46CAE90023204629464C
S21440208000F092FF6EA3D3E9002316E06EA3D3E9D7
S214402090002300F08BFF6EA3D3E9002304460D46D1
S2144020A000F084FF02460B46CAE900232046294634
S2144020B000F07AFF66A3D3E9002300F077FFCAE971
S2144020C002014FF0FF3064E16C4B984500F3FE8010
S2144020D000F05EFE60A3D3E9002304460D4601F0FF
S2144020E017F90022664B00F061FF01F0ABFB834618
S2144020F001F0A8F850A3D3E90023CDE9040101F08C
S21440210007F902460B462046294600F04DFF4CA3F1
S214402110D3E9002304460D46DDE9040101F0F8F852
S214402120BBF11F0F06460F462046294606DC0BF13C
S214402130FF32544B53F82230984576D13B463246D0
S21440214000F032FF4FEA285CC1F30A53C3EB0C039E
S214402150102BCAE9000140F399803BA3D3E9002342
S214402160DDE90401CDF80CC001F0D2F806460F4672
S21440217032463B462046294600F016FF80468946B2
S2144021802046294642464B4600F00EFF32463B4626
S21440219000F00AFF2EA3D3E9002304460D46DDE9EE
S2144021A0040101F0B5F822462B4600F0FDFE064637
S2144021B00F463B4640464946324600F0F5FEDDF8BF
S2144021C00CC0C1F30A53C3EB0C03312BCAE9000120
S2144021D05ADD23A3D3E90023DDE9040101F098F892
S2144021E006460F4632463B464046494600F0DCFE31
S2144021F004460D4622462B464046494600F0D4FE4D
S21440220032463B4600F0D0FE17A3D3E900230646ED
S2144022100F46DDE9040101F07BF832463B4600F00C
S214402220C3FE06460F462046294632463B4600F049
S214402230BBFECAE9000129E000004054FB21F93FFB
S2144022403163621A61B4D03D0000601A61B4D03D7B
S2144022507370032E8A19A33B83C8C96D305FE43F71
S2144022600000002E8A19A33BC14920259A837B395A
S214402270FB21E93F7BD90240FB21F93FFB21394155
S2144022800000E03FC83F400044464D46DAE900893A
S214402290204642464B46294600F086FE32463B469E
S2144022A000F082FE079A002ACAE9020170DA09F1B4
S2144022B00043CAF8043001F10043CAF80800CAF8DF
S2144022C00080CAF80C30CBF1000062E0324B9845F3
S2144022D009DD02460B4600F067FECAE90201CAE97C
S2144022E00001002055E04FEA2856A6F21646A8EB15
S2144022F006552946044601F0A5FA00F0A3FF02461B
S2144023000B4620462946CDE9082300F04DFE002224
S214402310224B00F0FDFF04460D4601F093FA00F014
S21440232091FF02460B4620462946CDE90A2300F097
S2144023303BFE0022194B00F0EBFFCDE90C010324D5
S21440234008AA651E02EBC503D3E90001002200235C
S21440235001F046FA08B12C46F2E702230093104BF0
S214402360019308A823465146324600F009F9079BD8
S214402370002B0EDADAF8043003F10043CAF80430D2
S214402380DAF80C3003F10043CAF80C30404200E063
S21440239058460FB0BDE8F08FFFFFEF7F000070415A
S2144023A048404000AFF300802DE9F04F21F000494F
S2144023B0B9F1795F85B006460F4692469B4604DAE9
S2144023C001F040FA002800F0B28032463B463046E4
S2144023D0394600F09DFF58A3D3E9002304460D4636
S2144023E000F096FF56A3D3E9002300F0DFFD024637
S2144023F00B462046294600F08BFF53A3D3E9002323
S21440240000F0D2FD02460B462046294600F080FFEB
S2144024104FA3D3E9002300F0C9FD02460B462046F1
S214402420294600F075FF4CA3D3E9002300F0BCFD1D
S21440243002460B462046294600F06AFF48A3D3E9E9
S214402440002300F0B3FD0B4602462946204600F026
S2144024505FFF454B9945CDE9000126DC20462946DD
S2144024600022424B00F054FFDDE9002380468946B7
S2144024702046294600F04CFF524604460D465B4631
S2144024803046394600F044FF02460B462046294671
S21440249000F08AFD02460B464046494600F084FD61
S2144024A002460B46002032493EE0324B994505DC59
S2144024B0A9F5001300229046994603E0DFF8B8904D
S2144024C04FF0000842464B460020294900F06CFD7C
S2144024D00022CDE90201254B2046294600F018FF90
S2144024E042464B4600F060FDDDE9002380468946C3
S2144024F02046294600F00CFF524604460D465B46F1
S2144025003046394600F004FF02460B462046294630
S21440251000F04AFD02460B464046494600F044FD60
S21440252002460B46DDE9020100F03EFD01E010499F
S214402530002005B0BDE8F08FD43888BEE9FAA8BDC3
S214402540C4B1B4BD9EEE213EAD529C804F7E923EBD
S2144025509015CB19A001FA3E7751C1166CC1563F73
S2144025604C5555555555A53F3233D33F0000E03FB7
S2144025700000F03F0000E93F0000D23FAFF300808C
S2144025802DE9F04FADF51B7DA2F103080993A49CFD
S214402590AB4B099D53F824300693013D0895AA4657
S2144025A0069D0A90182398FBF3F8AA44089D0591C7
S2144025B028EAE878C5EB0807A59D6FEA080405EB0E
S2144025C0870903FB042420AE002555450CDCFD425C
S2144025D004D459F8250000F035FE01E00020002123
S2144025E0E6E902010135F0E70DF5E07C00250699A5
S2144025F08D4228DCDDF824A00A9AAA4422ABA2F138
S214402600080B03EBCA0A002600274FF0000908987B
S214402610814514DCFBE902237AE90201CDF804C0C7
S21440262000F076FE02460B463046394600F0BEFCC9
S21440263009F1010906460F46DDF804C0E7E7ECE974
S21440264002670135D3E7069D0EA800EB8500A59DE1
S2144026500B9005EB8805DDF818800D954FEAC80904
S2144026609AAB4B4453E9286772A80DF1340A81446B
S2144026704546002D3046394621DD0022714B00F09C
S21440268047FE01F0DFF800F0DDFD00226E4BCDE99D
S214402690020100F03DFE02460B463046394600F049
S2144026A083FC01F0CFF8DDE902234AF8040F79E90C
S2144026B0020100F07BFC013D06460F46D9E7224664
S2144026C000F0F2FB00224FF07F5306460F4600F024
S2144026D01FFE00F061FB00225C4B00F019FE024634
S2144026E00B463046394600F05FFC0F46064601F082
S2144026F0A9F8029000F0A6FD02460B463046394641
S21440270000F052FC002C06460F4616DD08F1FF325C
S2144027100EAB029D53F82210C4F1180341FA03F0A1
S214402720054400FA03F30EA8CB1A40F82230C4F151
S2144027301702029543FA02F90FE007D108F1FF337A
S2144027400EA951F823304FEAE35906E00022404BE9
S21440275001F064F828B981464FE0B9F1000F02DC79
S2144027604BE04FF00209029D0023013502950EAA68
S2144027701D4643450FDA52F8041B1DB949B1C1F155
S214402780807103E0C1F1FF1101F57F4142F8041C5E
S21440279001250133EDE7002C16DD012C0BD0022C71
S2144027A012D108F1FF330EA951F82320C2F31502C7
S2144027B041F8232008E008F1FF330EA850F8232004
S2144027C0C2F3160240F82320B9F1020F15D1324663
S2144027D03B4600201F4900F0E7FB06460F4665B122
S2144027E0224600201B4900F05FFB02460B4630465F
S2144027F0394600F0D9FB06460F4630463946002299
S214402800002300F0EDFF00286ED00EAA08F1FF313D
S21440281002EB880000230A46069DAA4204DB50F8D5
S214402820045D013A2B43F7E7002B40F0E281012696
S2144028306FF0030373430B9DEB586BB90136F7E714
S214402840504140000000703E0000704100002040B3
S2144028500000E03F0000F03FDDF824B072A9C3441A
S21440286022A801EBC80108F1010500EBCB0B0C9147
S214402870002708EB06039D4234DC0D9A52F82500EB
S21440288000F0E0FC0BEB0709C9E90001002000213D
S2144028900A9BCDE90201A3F1080A4FF0000C089903
S2144028A08C4516DCA9EBCC03D3E90023FAE90201F8
S2144028B0CDF804C000F02CFD02460B46DDE90201CF
S2144028C000F074FBDDF804C0CDE902010CF1010C08
S2144028D0E5E70C9BDDE902013B44C3E90201013513
S2144028E00837C6E79846B9E630463946624200F0B1
S2144028F0DBFA00229E4B06460F4600F08FFFF8B1EB
S21440290000229C4B3046394600F002FD00F09AFF0C
S214402910054600F097FC0022954B00F0F9FC024675
S2144029200B463046394600F03FFB00F08BFF0EAAC0
S214402930183442F8280008F1010842F8285006E00A
S2144029403046394600F07EFF0EAB43F8280022465C
S2144029500020894900F0A8FA04460D4608F1010017
S21440296072A9089001EBC0064746002F16DB0EAA58
S21440297052F8270000F066FC02460B4620462946E1
S21440298000F0C6FC002266E902017A4B2046294642
S21440299000F0BEFC013F04460D46E6E772AC04EB91
S2144029A0C80448AF09940025C5EB0803002B27DB75
S2144029B0099C724EA4EBC50C4FF0000A4FF0000B7A
S2144029C000240698844217DCAC4215DC0CEBC403AA
S2144029D0D3E90023F6E90201CDF804C000F098FCE4
S2144029E002460B465046594600F0E0FA013482460D
S2144029F08B46DDF804C0E4E7E7E902AB0135D3E7F0
S214402A00A49D032D00F2EE80DFE805F010080802D2
S214402A104AA901EBC80CE246C3465AE0089C4AA8BD
S214402A2000EBC4050022444600231CE0089D4AA84B
S214402A3000EBC50400210020B8F1000F06DB74E966
S214402A40022300F0B3FA08F1FF38F5E7B9F1000FBA
S214402A5003D0024601F1004301E002460B46059CC6
S214402A60C4E90023BEE0002C09DB1046194675E990
S214402A70022300F09BFA013C02460B46F3E7B9F10D
S214402A80000F03D0104603F1004101E010461946FE
S214402A90059D4AACC5E90001D4E9000100F084FA7E
S214402AA00124444508DC4AAD05EBC403D3E90023C2
S214402AB000F07CFA0134F4E7B9F1000F03D0024687
S214402AC001F1004301E002460B46059CC4E902239F
S214402AD088E0BBF1000F24DD5AE90245DAE90067D9
S214402AE02046294632463B46CDF804C0CDE9064549
S214402AF000F05CFA04460D4622462B46DDE9060108
S214402B0000F052FA02460B463046394600F04EFA7E
S214402B100BF1FF3BCAE90001DDF804C06AE9024553
S214402B20D7E7E246C346BBF1010F29DD5AE9024525
S214402B30DAE900672046294632463B46CDE9064557
S214402B4000F034FA04460D4622462B46DDE90601DF
S214402B5000F02AFA02460B463046394600F026FA7E
S214402B600BF1FF3BCAE900016AE90245DBE700BF1B
S214402B70000070410000703E0000F03F58414000A9
S214402B80089D4AA800EBC50400210020B8F1010FBB
S214402B9006DD74E9022300F009FA08F1FF38F5E78C
S214402BA0B9F1000F0DD14AACD4E90023059D4CACD9
S214402BB0C5E90023D4E90023C5E90401C5E9022399
S214402BC010E0059D4A9B2B604B9B286103F1004318
S214402BD06B604C9BAB604D9B03F10043EB6001F197
S214402BE000436B61029C04F007000DF51B7DBDE8B9
S214402BF0F08F183C88460EA951F82830002B7FF4F9
S214402C00A6AE08F1FF38183CF5E700BF000000000C
S214402C102DE9F04F85B0CDE9002321F00043B3F114
S214402C20795F04460D4604DA00F00CFE002800F0FA
S214402C308B8022462B462046294600F069FB2246DA
S214402C402B4606460F4600F063FB43A3D3E900231A
S214402C5082468B463046394600F05AFB40A3D3E9BD
S214402C60002300F0A1F902460B463046394600F0F4
S214402C704FFB3DA3D3E9002300F098F902460B46EC
S214402C803046394600F044FB39A3D3E9002300F030
S214402C908BF902460B463046394600F039FB36A3E0
S214402CA0D3E9002300F082F90E9B80468946BBB9E3
S214402CB042464B463046394600F02AFB30A3D3E91D
S214402CC0002300F071F902460B465046594600F084
S214402CD01FFB02460B462046294600F067F935E0C2
S214402CE0DDE900010022284B00F012FB4246CDE908
S214402CF002014B465046594600F00AFB02460B4638
S214402D00DDE9020100F050F902460B4630463946EE
S214402D1000F0FEFADDE9002300F046F918A3D3E9F7
S214402D20002306460F465046594600F0F1FA024642
S214402D300B463046394600F039F902460B462046E7
S214402D40294600F031F901E02046294605B0BDE8A5
S214402D50F08F00BFAFF300807CD5CF5A3AD9E53D1F
S214402D60EB9C2B8AE6E55A3E7DFEB157E31DC73EF7
S214402D70D561C119A0012A3FA6F810111111813F53
S214402D80495555555555C53F0000E03FAFF30080C7
S214402D9021F00041704700002DE9F047C1F30A5981
S214402DA0A9F2FF38B8F1130F02460B4604460D460B
S214402DB00E46074636DCB8F1000F15DA36A3D3E9DF
S214402DC0002300F0F3F80022002300F031FD002835
S214402DD059D0002D55DA25F000432343304B4FF0B1
S214402DE0000718BF1E464EE0DFF8B89049FA08F9CB
S214402DF009EA010C5CEA000C49D027A3D3E900237A
S214402E0000F0D4F80022002300F012FDD8B3002DC5
S214402E1004DA4FF4801646FA08F62E4426EA0906E7
S214402E20002730E0B8F1330F06DDB8F5806F2ED1BD
S214402E3000F0BCF8BDE8F087A9F2134C4FF0FF3A1B
S214402E402AFA0CFA1AEA000F21D013A3D3E900237A
S214402E5000F0ACF80022002300F0EAFC98B1002D08
S214402E600CDAB8F1140F08D0C9F5866909F10309E0
S214402E70012707FA09F73F1900D36E1C27EA0A070D
S214402E8001E000273E4631463846BDE8F08710460A
S214402E901946BDE8F08700BF9C7500883CE4377E45
S214402EA00000F0BFFFFF0F00C1F30A532DE9F041C9
S214402EB08C4604460D4690468BB921F000430343AA
S214402EC051D02F4B002200F023FA2E4B9845044653
S214402ED00D4635DBC1F30A538C46363B09E040F2DB
S214402EE0FF72934205D102460B4600F05FF8BDE8FC
S214402EF0F081434440F2FE7293420FDC002B06DD25
S214402F002CF0FF4C2CF4E00C4CEA03552BE013F16C
S214402F10350F19DA4CF2503398450ADD22462B46D7
S214402F2013A1D1E9000100F033F811A3D3E900233F
S214402F3015E011A1D1E9000122462B4600F028F801
S214402F400DA3D3E900230AE02CF0FF4C36332CF4D3
S214402F50E00C4CEA03550C4B20462946002200F074
S214402F60D7F9BDE8F08120462946BDE8F08100BF8C
S214402F709C7500883CE4377E59F3F8C21F6EA50165
S214402F8000005043B03CFFFF0000903CAFF3008091
S214402F9030B503F0004321F0004243EA020130BD61
S214402FA081F0004102E000BF83F0004330B54FEAB5
S214402FB041044FEA430594EA050F08BF90EA020F22
S214402FC01FBF54EA000C55EA020C7FEA645C7FEAB5
S214402FD0655C00F0E2804FEA5454D4EB5555B8BFD8
S214402FE06D420CDD2C4480EA020281EA030382EA49
S214402FF0000083EA010180EA020281EA0303362DDB
S21440300088BF30BD11F0004F4FEA01314FF4801CAD
S2144030104CEA113102D0404261EB410113F0004FBF
S2144030204FEA03334CEA133302D0524263EB430376
S21440303094EA050F00F0A780A4F10104D5F1200E14
S2144030400DDB02FA0EFC22FA05F2801841F100016F
S21440305003FA0EF2801843FA05F359410EE0A5F143
S21440306020050EF1200E012A03FA0EFC28BF4CF074
S214403070020C43FA05F3C01851EBE37101F000452A
S21440308007D54FF0000EDCF1000C7EEB00006EEB37
S2144030900101B1F5801F1BD3B1F5001F0CD34908C1
S2144030A05FEA30004FEA3C0C04F101044FEA445218
S2144030B012F5800F80F09A80BCF1004F08BF5FEA9F
S2144030C0500C50F1000041EB045141EA050130BD7F
S2144030D05FEA4C0C404141EB010111F4801FA4F122
S2144030E00104E9D191F0000F04BF01460020B1FA77
S2144030F081F308BF2033A3F10B03B3F120020CDAAF
S2144031000C3208DD02F1140CC2F10C0201FA0CF08C
S21440311021FA02F10CE002F11402D8BFC2F1200CF1
S21440312001FA02F120FA0CFCDCBF41EA0C019040A7
S214403130E41AA2BF01EB0451294330BD6FEA0404F0
S2144031401F3C1CDA0C340EDC04F11404C4F12002DB
S21440315020FA04F001FA02F340EA030021FA04F3ED
S21440316045EA030130BDC4F10C04C4F1200220FA44
S21440317002F001FA04F340EA0300294630BD21FA82
S21440318004F0294630BD94F0000F83F4801306BF48
S21440319081F480110134013D4EE77FEA645C18BF3C
S2144031A07FEA655C29D094EA050F08BF90EA020FD3
S2144031B005D054EA000C04BF1946104630BD91EACB
S2144031C0030F1EBF0021002030BD5FEA545C05D1CE
S2144031D04000494128BF41F0004130BD14F580040D
S2144031E03CBF01F5801130BD01F0004545F0FE4181
S2144031F041F470014FF0000030BD7FEA645C1ABFB6
S214403200194610467FEA655C1CBF0B46024650EAEC
S214403210013406BF52EA033591EA030F41F4002118
S21440322030BD00BF90F0000F04BF0021704730B59E
S2144032304FF4806404F132044FF000054FF0000173
S21440324050E700BF90F0000F04BF0021704730B534
S2144032504FF4806404F1320410F0004548BF404209
S2144032604FF000013EE700BF42004FEAE2014FEA5E
S21440327031014FEA02701FBF12F07F4393F07F4F39
S21440328081F06051704792F0000F14BF93F07F4F6B
S214403290704730B54FF4607401F0004521F00041AE
S2144032A020E700BF50EA010208BF704730B54FF034
S2144032B000050AE050EA010208BF704730B511F039
S2144032C0004502D5404261EB41014FF4806404F171
S2144032D032045FEA915C3FF4DCAE4FF003025FEAF3
S2144032E0DC0C18BF03325FEADC0C18BF033202EB7B
S2144032F0DC02C2F1200300FA03FC20FA02F001FAD5
S21440330003FE40EA0E0021FA02F11444C1E600BF73
S21440331070B54FF0FF0C4CF4E06C1CEA11541DBF26
S2144033201CEA135594EA0C0F95EA0C0F00F0DEF8F1
S2144033302C4481EA030621EA4C5123EA4C5350EAD6
S214403340013518BF52EA033541F4801143F4801327
S21440335038D0A0FB02CE4FF00005E1FB02E506F0B8
S2144033600042E0FB03E54FF00006E1FB03569CF00D
S214403370000F18BF4EF0010EA4F1FF04B6F5007F13
S21440338064F5407404D25FEA4E0E6D4146EB060685
S21440339042EAC62141EA55514FEAC52040EA5E500E
S2144033A04FEACE2EB4F1FD0C88BFBCF5E06F1ED8B8
S2144033B0BEF1004F08BF5FEA500E50F1000041EBEF
S2144033C0045170BD06F0004646EA010140EA02009C
S2144033D081EA0301B4EB5C04C2BFD4EB0C0541EABE
S2144033E0045170BD41F480114FF0000E013C00F3D3
S2144033F0AB8014F1360FDEBF002001F0004170BDF7
S214403400C4F10004203C35DA0C341BDC04F114040F
S214403410C4F1200500FA05F320FA04F001FA05F29B
S21440342040EA020001F0004221F0004110EBD37068
S21440343021FA04F642EB06015EEA430E08BF20EA94
S214403440D37070BDC4F10C04C4F1200500FA04F337
S21440345020FA05F001FA04F240EA020001F00041C9
S21440346010EBD37041F100015EEA430E08BF20EA3C
S214403470D37070BDC4F1200500FA05F24EEA020E84
S21440348020FA04F301FA05F243EA020321FA04F0B3
S21440349001F0004121FA04F220EA020000EBD3706A
S2144034A05EEA430E08BF20EAD37070BD94F0000F6A
S2144034B00FD101F00046400041EB010111F4801F9E
S2144034C008BF013CF7D041EA060195F0000F18BF4F
S2144034D0704703F00046520043EB030313F4801F8B
S2144034E008BF013DF7D043EA0603704794EA0C0F45
S2144034F00CEA135518BF95EA0C0F0CD050EA41065B
S21440350018BF52EA4306D1D181EA030101F00041D7
S2144035104FF0000070BD50EA410606BF10461946FF
S21440352052EA430619D094EA0C0F02D150EA01360B
S21440353013D195EA0C0F05D152EA03361CBF10464C
S21440354019460AD181EA030101F0004141F0FE41EB
S21440355041F470014FF0000070BD41F0FE4141F46F
S214403560780170BD70B54FF0FF0C4CF4E06C1CEA6F
S21440357011541DBF1CEA135594EA0C0F95EA0C0F24
S21440358000F0A7F8A4EB050481EA030E52EA0335DF
S2144035904FEA013100F088804FEA03334FF0805500
S2144035A045EA131343EA12634FEA022245EA11152D
S2144035B045EA10654FEA00260EF000419D4208BFDE
S2144035C0964244F1FD0404F5407402D25B084FEA8B
S2144035D03202B61A65EB03055B084FEA32024FF437
S2144035E080104FF4002CB6EB020E75EB030E22BF94
S2144035F0B61A754640EA0C005B084FEA3202B6EB54
S214403600020E75EB030E22BFB61A754640EA5C0002
S2144036105B084FEA3202B6EB020E75EB030E22BF92
S214403620B61A754640EA9C005B084FEA3202B6EB93
S214403630020E75EB030E22BFB61A754640EADC0052
S21440364055EA060E18D04FEA051545EA16754FEAB4
S21440365006164FEAC30343EA52734FEAC2025FEAD2
S2144036601C1CC0D111F4801F0BD141EA00014FF061
S21440367000004FF0004CB6E711F4801F04BF014332
S2144036800020B4F1FD0C88BFBCF5E06F3FF6AFAE4E
S214403690B5EB030C04BFB6EB020C5FEA500C50F1DE
S2144036A0000041EB045170BD0EF0004E4EEA113161
S2144036B014EB5C04C2BFD4EB0C0541EA045170BD68
S2144036C041F480114FF0000E013C90E645EA060EAC
S2144036D08DE60CEA135594EA0C0F08BF95EA0C0FDA
S2144036E03FF43BAF94EA0C0F0AD150EA01347FF422
S2144036F034AF95EA0C0F7FF425AF104619462CE7F9
S21440370095EA0C0F06D152EA03353FF4FDAE10465B
S214403710194622E750EA410618BF52EA43067FF4AC
S214403720C5AE50EA41047FF40DAF52EA43057FF43C
S214403730EBAE12E74FF0FF3C06E000BF4FF0010C47
S21440374002E000BF4FF0010C4DF804CD4FEA410CAB
S2144037507FEA6C5C4FEA430C18BF7FEA6C5C1BD078
S21440376001B050EA410C0CBF52EA430C91EA030FF9
S21440377002BF90EA020F0020704710F1000F91EA56
S214403780030F58BF994208BF90422CBFD8176FEA24
S214403790E37040F0010070474FEA410C7FEA6C5CF2
S2144037A002D150EA013C07D14FEA430C7FEA6C5CF9
S2144037B0D6D152EA033CD3D05DF8040B704700BF25
S2144037C08446104662468C461946634600E000BF73
S2144037D001B5FFF7B7FF002848BF10F1000F01BD45
S2144037E04DF808EDFFF7F4FF0CBF012000205DF810
S2144037F008FB00BF4DF808EDFFF7EAFF34BF012095
S21440380000205DF808FB00BF4DF808EDFFF7E0FF2D
S21440381094BF012000205DF808FB00BF4DF808ED7E
S214403820FFF7CEFF94BF012000205DF808FB00BFE5
S2144038304DF808EDFFF7C4FF34BF012000205DF8C7
S21440384008FB00BF4FEA410212F5001215D211D50F
S2144038506FF47873B3EB625212D94FEAC12343F048
S214403860004343EA505311F0004F23FA02F018BFCA
S214403870404270474FF00000704750EA013005D193
S21440388011F0004008BF6FF0004070474FF0000056
S214403890704700BF4A0011D212F5001211D20DD562
S2144038A06FF47873B3EB62520ED44FEAC12343F001
S2144038B0004343EA505323FA02F070474FF00000AB
S2144038C0704750EA013002D14FF0FF3070474FF05A
S2144038D0000070474BB942B9002908BF002802D003
S2144038E04FF0FF31084600F03BB882B0EC462DE979
S2144038F0005000F01DF8DDF804E002B00CBC704744
S2144039002DE97043069E14461D468046894600F0C3
S21440391029F804FB01F300FB0533A4FB00451D44D6
S214403920B8EB040469EB0505C6E90045BDE87083BD
S2144039302DE97043069E1446804689461D4600F093
S2144039405DF900FB05F504FB0153A0FB04451D444F
S214403950B8EB040469EB0505C6E90045BDE870838D
S214403960704700BF00292DE9F00FC0F29F80002469
S214403970002BC0F29680154606460F46002B3ED1D9
S2144039808A4257D9B2FA82F34BB1C3F1200201FA08
S21440399003F720FA02F29D40174300FA03F6290C7B
S2144039A0B7FBF1F2330C01FB127CA8B243EA0C479A
S2144039B000FB02F3BB4209D97F1902F1FF3C80F0BD
S2144039C00181BB4240F2FE80023A2F44FF1AB7FB09
S2144039D0F1F3B6B201FB137146EA014100FB03F076
S2144039E0884208D9491903F1FF3780F0ED808842B4
S2144039F040F2EA80023B43EA0242002303E08B4265
S214403A000AD900231A461046194614B1404261EBC3
S214403A104101BDE8F00F7047B3FA83F8B8F1000FE4
S214403A2040F084808B4202D3824200F2DE80002344
S214403A300122E8E712B90123B3FBF2F5B5FA85F2A5
S214403A40002A39D17F1B280C1FFA85FC0123B7FBBF
S214403A50F0F1320C00FB117742EA07470CFB01F20B
S214403A60BA4207D97F1901F1FF3802D2BA4200F2B2
S214403A70C1804146BF1AB7FBF0F2B6B200FB1270E7
S214403A8046EA00400CFB02FC844507D9401902F187
S214403A90FF3702D2844500F2AB803A4642EA014202
S214403AA0B1E7E443524263EB430364E7404261EBD1
S214403AB041014FF0FF345BE79540C2F1200327FAFF
S214403AC003F1280C26FA03F39740B1FBF0F81F43A6
S214403AD03B0C00FB18111FFA85FC43EA01410CFB26
S214403AE008F38B4206FA02F608D9491908F1FF3264
S214403AF079D28B4277D9A8F102082944C91AB1FB7A
S214403B00F0F3BFB200FB131147EA01470CFB03F288
S214403B10BA4207D97F1903F1FF3160D2BA425ED963
S214403B20023B2F44BF1A43EA084390E7C8F12002FD
S214403B3003FA08FC25FA02F343EA0C0C4FEA1C4948
S214403B4021FA02F301FA08F720FA02F2B3FBF9F180
S214403B50174309FB11333A0C1FFA8CFB42EA034326
S214403B600BFB01FA9A4505FA08F008D913EB0C034B
S214403B7001F1FF3235D29A4533D902396344CAEB54
S214403B800303B3FBF9F209FB1233BFB247EA03471C
S214403B900BFB02F9B94508D917EB0C0702F1FF33C6
S214403BA01BD2B94519D9023A674442EA0145A5FBFA
S214403BB00001C9EB07078F424FF000030AD305D038
S214403BC02A4620E7624601E73B4614E706FA08F62F
S214403BD08642F5D26A1E002315E71A46E5E70B46ED
S214403BE0A0E71146CBE7904688E7434642460AE7B9
S214403BF0023A53E702392F443CE700BF2DE9F00F65
S214403C00144605460E46002B43D18A4253D9B2FA93
S214403C1082F757B1C7F1200620FA06F601FA07F3F5
S214403C2002FA07F41E4300FA07F5210CB6FBF1F240
S214403C302B0C01FB1267A0B243EA074600FB02F3D7
S214403C40B34209D9361902F1FF3780F0F680B34205
S214403C5040F2F380023A2644F61AB6FBF1F3ADB2D0
S214403C6001FB136145EA014100FB03F0884208D995
S214403C70091903F1FF3680F0E280884240F2DF8087
S214403C80023B43EA0242002310461946BDE8F00FC5
S214403C9070478B424AD8B3FA83F6002E4DD18B42FA
S214403CA002D3824200F2D6800023012210461946F3
S214403CB0BDE8F00F704712B90124B4FBF2F4B4FA31
S214403CC084F2002A7CD1091B260CA7B20123B1FB43
S214403CD0F6F02A0C06FB101142EA014107FB00F2FF
S214403CE08A4207D9091900F1FF3C02D28A4200F203
S214403CF0C3806046891AB1FBF6F2ADB206FB1211DC
S214403D0045EA014507FB02F7AF4208D92C1902F1F4
S214403D10FF3180F09680A74240F29380023A42EA12
S214403D20004210461946BDE8F00F704700231A4679
S214403D3010461946BDE8F00F7047C6F1200522FA36
S214403D4005F4B3401C434FEA144821FA05F301FA40
S214403D5006F720FA05F5B3FBF8FC2F4308FB1C33A7
S214403D603D0C1FFA84FA45EA03430AFB0CF99945D1
S214403D7002FA06FB04D91B190CF1FF326DD39446A8
S214403D80C9EB0303B3FBF8F508FB1533BFB247EAAC
S214403D9003470AFB05F8B84504D93F1905F1FF3338
S214403DA061D31D4645EA0C4CACFB0B23C8EB07071A
S214403DB09F424FF0000549D345D062462B4663E705
S214403DC09440C2F1200321FA03FC260C20FA03F3A8
S214403DD001FA02F5BCFBF6F843EA05010B0C06FBBC
S214403DE018CCA7B243EA0C4C07FB08F3634500FA2D
S214403DF002F509D91CEB040C08F1FF323AD26345B0
S214403E0038D9A8F10208A444C3EB0C0CBCFBF6F36B
S214403E1089B206FB13CC41EA0C4107FB03F28A4207
S214403E2007D9091903F1FF3022D28A4220D9023B32
S214403E302144891A43EA084349E73A460CE73346A1
S214403E401FE70A466BE7B0409042B6D20CF1FF320D
S214403E50002319E73346324616E799458FD9ACF129
S214403E60020C23448CE7B8459BD9023D274499E78A
S214403E700346DEE79046C7E7023821443AE700BFEC
S214403E8070B50E4B0E4DED1AAD1000241E46AC42DA
S214403E9004D056F8242090470134F8E700F084F91F
S214403EA0084D094BED1AAD1000241E46AC4204D016
S214403EB056F8242090470134F8E770BDB4414000DE
S214403EC0B4414000BC414000B4414000024B13B1F5
S214403ED0024800F005B8704700000000ED3E400084
S214403EE0014600200246034600F016B838B5084D95
S214403EF0084C641BA41005EB840524B155F8043D1A
S214403F00013C9847F9E7BDE8384000F057B900BF94
S214403F10C8414000CC4140002DE9F8439846224B2A
S214403F201C680646D4F848010F46914618B904F571
S214403F30A670C4F8480143681F2B16DD1B4B1BB9FF
S214403F404FF0FF30BDE8F8834FF4C870AFF3008001
S214403F500028F5D0D4F84811016000254560C4F823
S214403F604801C0F88851C0F88C5144689EB100EBB7
S214403F7084050122C5F88890D0F88811A2401143E4
S214403F80022EC0F88811C5F8088104D1D0F88C31CB
S214403F901A43C0F88C21631C0234436040F82470F6
S214403FA00020BDE8F88300BFA041400000000000AC
S214403FB0736F6D657468696E670A0D00303A6865A0
S214403FC06C6C6F2E74787400FB21F93FFB2109401E
S214403FD07CD91240FB2119407A6A1F407CD9224086
S214403FE0BBFD2540FB2129403A462C407A6A2F40AB
S214403FF05C4731407CD932409C6B3440BBFD3540F9
S214404000DB8F3740FB2139401BB43A403A463C40B0
S2144040105AD83D407A6A3F404C7E40405C474140DB
S2144040206C1042407CD942408CA243409C6B44403A
S214404030AC344540BBFD4540CBC64640DB8F474091
S214404040EB584840FB21494083F9A200444E6E009D
S214404050FC291500D1572700DD34F50062DBC0008F
S2144040603C999500419043006351FE00BBDEAB0097
S214404070B761C5003A6E2400D24D42004906E000C2
S21440408009EA2E001C92D100EB1DFE0029B11C004F
S214404090E83EA700F535820044BB2E009CE984002C
S2144040A0B4267000417E5F00D691390053833900B4
S2144040B09CF439008B5F840028F9BD00F81F3B0054
S2144040C0DEFF97000F980500112FEF000A5A8B006D
S2144040D06D1F6D00CF7E360009CB2700464FB700D8
S2144040E09E663F002DEA5F00BA277500E5EBC700E5
S2144040F03D7BF100F739070092528A00FB6BEA00DD
S2144041001FB15F00085D8D00300356007BFC460003
S214404110F0AB6B0020BCCF0036F49A00E3A91D003C
S2144041205E619100081BE60085996500A0145F005B
S2144041308D40680080D8FF0027734D00060631008A
S214404140CA561500C9A873007BE260006B8CC0009D
S214404150020000000300000004000000060000000B
S21440416000000040FB21F93F000000002D44743E53
S214404170000000809846F83C0000006051CC783B38
S21440418000000080831BF0390000004020257A386C
S214404190000000802282E336000000001DF36935EF
S2144041A05000002043000000F8B500BFF8BC08BC33
S2144041B09E467047CD3E400039014000F8B500BFEE
S2104041C0F8BC08BC9E4670471101400049
S20C4041CC98F7FF7F0100000098
S2144041D480B483B000AF7860BFF35F8F0138FBD103
S2144041E40C37BD465DF8047B704700BF00000000F6
S2144041F4000000001A00000000000000000000005C
S2144042040000000000000000000000000000000065
S21440421400093D000000000050000020000000009F
S214404224000000003C030020A40300200C040020EF
S2144042340000000000000000000000000000000035
S2144042440000000000000000000000000000000025
S21440425400000000A44140000000000000000000F0
S2144042640000000000000000000000000000000005
S21440427400000000000000000000000000000000F5
S21440428400000000000000000000000000000000E5
S21440429400000000000000000000000000000000D5
S2144042A400000000000000000000000000000000C5
S2144042B400000000000000000000000000000000B5
S2144042C400000000000000000100000000000000A4
S2144042D40E33CDAB34126DE6ECDE05000B00000069
S2144042E40000000000000000000000000000000085
S2144042F40000000000000000000000000000000075
S2144043040000000000000000000000000000000064
S2144043140000000000000000000000000000000054
S80440124D5C
